{
	"data": {
		"bytecode": {
			"linkReferences": {},
			"object": "608060405234801561000f575f80fd5b506119718061001d5f395ff3fe60806040526004361061007a575f3560e01c8063b563153c1161004d578063b563153c14610138578063bfb231d214610160578063dbcd72f01461019d578063df3e0a1d146101b95761007a565b8063012f52ee1461007e57806334b25ee2146100be5780633e9e27aa146100e6578063675ac67a1461010e575b5f80fd5b348015610089575f80fd5b506100a4600480360381019061009f9190610d00565b6101e1565b6040516100b5959493929190610d93565b60405180910390f35b3480156100c9575f80fd5b506100e460048036038101906100df9190610e0e565b61026a565b005b3480156100f1575f80fd5b5061010c60048036038101906101079190610f88565b6103ed565b005b348015610119575f80fd5b506101226106bf565b60405161012f9190610ff4565b60405180910390f35b348015610143575f80fd5b5061015e60048036038101906101599190610d00565b6106c5565b005b34801561016b575f80fd5b5061018660048036038101906101819190610d00565b610824565b60405161019492919061100d565b60405180910390f35b6101b760048036038101906101b2919061105e565b610843565b005b3480156101c4575f80fd5b506101df60048036038101906101da9190610d00565b610a8f565b005b6001602052805f5260405f205f91509050805f015f9054906101000a900473ffffffffffffffffffffffffffffffffffffffff1690806001015f9054906101000a900473ffffffffffffffffffffffffffffffffffffffff1690806002015490806003015f9054906101000a900460ff16908060030160019054906101000a900460ff16905085565b5f60015f8481526020019081526020015f2090508060030160019054906101000a900460ff166102cf576040517f08c379a00000000000000000000000000000000000000000000000000000000081526004016102c6906110f6565b60405180910390fd5b811561034557806001015f9054906101000a900473ffffffffffffffffffffffffffffffffffffffff1673ffffffffffffffffffffffffffffffffffffffff166108fc826002015490811502906040515f60405180830381858888f1935050505015801561033f573d5f803e3d5ffd5b506103b0565b805f015f9054906101000a900473ffffffffffffffffffffffffffffffffffffffff1673ffffffffffffffffffffffffffffffffffffffff166108fc826002015490811502906040515f60405180830381858888f193505050501580156103ae573d5f803e3d5ffd5b505b6001816003015f6101000a81548160ff0219169083151502179055505f8160030160016101000a81548160ff021916908315150217905550505050565b815f811180156103fe575060058111155b61043d576040517f08c379a00000000000000000000000000000000000000000000000000000000081526004016104349061115e565b60405180910390fd5b83600161047f576040517f08c379a0000000000000000000000000000000000000000000000000000000008152600401610476906111c6565b60405180910390fd5b5f805f8781526020019081526020015f209050806002015f3373ffffffffffffffffffffffffffffffffffffffff1673ffffffffffffffffffffffffffffffffffffffff1681526020019081526020015f205f9054906101000a900460ff161561051e576040517f08c379a000000000000000000000000000000000000000000000000000000000815260040161051590611254565b60405180910390fd5b8060030160405180608001604052803373ffffffffffffffffffffffffffffffffffffffff16815260200187815260200186815260200142815250908060018154018082558091505060019003905f5260205f2090600402015f909190919091505f820151815f015f6101000a81548173ffffffffffffffffffffffffffffffffffffffff021916908373ffffffffffffffffffffffffffffffffffffffff1602179055506020820151816001015560408201518160020190816105e29190611476565b5060608201518160030155505084815f015f8282546106019190611572565b925050819055506001816001015f82825461061c9190611572565b925050819055506001816002015f3373ffffffffffffffffffffffffffffffffffffffff1673ffffffffffffffffffffffffffffffffffffffff1681526020019081526020015f205f6101000a81548160ff0219169083151502179055507f4beb3faed0901f48c8eaa53db80247f723ddeb08676b6badb9ee2f191d1ac2df863387876040516106af9493929190611605565b60405180910390a1505050505050565b60025481565b803373ffffffffffffffffffffffffffffffffffffffff1660015f8381526020019081526020015f205f015f9054906101000a900473ffffffffffffffffffffffffffffffffffffffff1673ffffffffffffffffffffffffffffffffffffffff1614610766576040517f08c379a000000000000000000000000000000000000000000000000000000000815260040161075d906116bf565b60405180910390fd5b5f60015f8481526020019081526020015f209050806003015f9054906101000a900460ff16156107cb576040517f08c379a00000000000000000000000000000000000000000000000000000000081526004016107c290611727565b60405180910390fd5b60018160030160016101000a81548160ff0219169083151502179055507f7ce7831fed9a800b1aa5e7ca21034bf7b95efc31a196459012cf8b8eb42b7dac836040516108179190610ff4565b60405180910390a1505050565b5f602052805f5260405f205f91509050805f0154908060010154905082565b5f3411610885576040517f08c379a000000000000000000000000000000000000000000000000000000000815260040161087c906117b5565b60405180910390fd5b5f73ffffffffffffffffffffffffffffffffffffffff168173ffffffffffffffffffffffffffffffffffffffff16036108f3576040517f08c379a00000000000000000000000000000000000000000000000000000000081526004016108ea9061181d565b60405180910390fd5b60025f8154809291906109059061183b565b91905055506040518060a001604052803373ffffffffffffffffffffffffffffffffffffffff1681526020018273ffffffffffffffffffffffffffffffffffffffff1681526020013481526020015f151581526020015f151581525060015f60025481526020019081526020015f205f820151815f015f6101000a81548173ffffffffffffffffffffffffffffffffffffffff021916908373ffffffffffffffffffffffffffffffffffffffff1602179055506020820151816001015f6101000a81548173ffffffffffffffffffffffffffffffffffffffff021916908373ffffffffffffffffffffffffffffffffffffffff160217905550604082015181600201556060820151816003015f6101000a81548160ff02191690831515021790555060808201518160030160016101000a81548160ff0219169083151502179055509050507fa96863da5e2cb895c2d739ef4b0a2bf93464d7bb3a3bf098c0af12c1b404c43a60025483338434604051610a83959493929190611882565b60405180910390a15050565b803373ffffffffffffffffffffffffffffffffffffffff1660015f8381526020019081526020015f205f015f9054906101000a900473ffffffffffffffffffffffffffffffffffffffff1673ffffffffffffffffffffffffffffffffffffffff1614610b30576040517f08c379a0000000000000000000000000000000000000000000000000000000008152600401610b27906116bf565b60405180910390fd5b8160015f8281526020019081526020015f2060030160019054906101000a900460ff1615610b93576040517f08c379a0000000000000000000000000000000000000000000000000000000008152600401610b8a9061191d565b60405180910390fd5b5f60015f8581526020019081526020015f209050806003015f9054906101000a900460ff1615610bf8576040517f08c379a0000000000000000000000000000000000000000000000000000000008152600401610bef90611727565b60405180910390fd5b6001816003015f6101000a81548160ff021916908315150217905550806001015f9054906101000a900473ffffffffffffffffffffffffffffffffffffffff1673ffffffffffffffffffffffffffffffffffffffff166108fc826002015490811502906040515f60405180830381858888f19350505050158015610c7e573d5f803e3d5ffd5b507f9285bd636dda01bef18996aa38303bb742f6c67a6941646dddb17630cb492c2e84604051610cae9190610ff4565b60405180910390a150505050565b5f604051905090565b5f80fd5b5f80fd5b5f819050919050565b610cdf81610ccd565b8114610ce9575f80fd5b50565b5f81359050610cfa81610cd6565b92915050565b5f60208284031215610d1557610d14610cc5565b5b5f610d2284828501610cec565b91505092915050565b5f73ffffffffffffffffffffffffffffffffffffffff82169050919050565b5f610d5482610d2b565b9050919050565b610d6481610d4a565b82525050565b610d7381610ccd565b82525050565b5f8115159050919050565b610d8d81610d79565b82525050565b5f60a082019050610da65f830188610d5b565b610db36020830187610d5b565b610dc06040830186610d6a565b610dcd6060830185610d84565b610dda6080830184610d84565b9695505050505050565b610ded81610d79565b8114610df7575f80fd5b50565b5f81359050610e0881610de4565b92915050565b5f8060408385031215610e2457610e23610cc5565b5b5f610e3185828601610cec565b9250506020610e4285828601610dfa565b9150509250929050565b5f80fd5b5f80fd5b5f601f19601f8301169050919050565b7f4e487b71000000000000000000000000000000000000000000000000000000005f52604160045260245ffd5b610e9a82610e54565b810181811067ffffffffffffffff82111715610eb957610eb8610e64565b5b80604052505050565b5f610ecb610cbc565b9050610ed78282610e91565b919050565b5f67ffffffffffffffff821115610ef657610ef5610e64565b5b610eff82610e54565b9050602081019050919050565b828183375f83830152505050565b5f610f2c610f2784610edc565b610ec2565b905082815260208101848484011115610f4857610f47610e50565b5b610f53848285610f0c565b509392505050565b5f82601f830112610f6f57610f6e610e4c565b5b8135610f7f848260208601610f1a565b91505092915050565b5f805f60608486031215610f9f57610f9e610cc5565b5b5f610fac86828701610cec565b9350506020610fbd86828701610cec565b925050604084013567ffffffffffffffff811115610fde57610fdd610cc9565b5b610fea86828701610f5b565b9150509250925092565b5f6020820190506110075f830184610d6a565b92915050565b5f6040820190506110205f830185610d6a565b61102d6020830184610d6a565b9392505050565b61103d81610d4a565b8114611047575f80fd5b50565b5f8135905061105881611034565b92915050565b5f806040838503121561107457611073610cc5565b5b5f61108185828601610cec565b92505060206110928582860161104a565b9150509250929050565b5f82825260208201905092915050565b7f457363726f77206973206e6f7420696e206469737075746500000000000000005f82015250565b5f6110e060188361109c565b91506110eb826110ac565b602082019050919050565b5f6020820190508181035f83015261110d816110d4565b9050919050565b7f526174696e67206d757374206265206265747765656e203120616e64203500005f82015250565b5f611148601e8361109c565b915061115382611114565b602082019050919050565b5f6020820190508181035f8301526111758161113c565b9050919050565b7f5573657220686173206e6f74207075726368617365642074686973206974656d5f82015250565b5f6111b060208361109c565b91506111bb8261117c565b602082019050919050565b5f6020820190508181035f8301526111dd816111a4565b9050919050565b7f557365722068617320616c7265616479207265766965776564207468697320695f8201527f74656d0000000000000000000000000000000000000000000000000000000000602082015250565b5f61123e60238361109c565b9150611249826111e4565b604082019050919050565b5f6020820190508181035f83015261126b81611232565b9050919050565b5f81519050919050565b7f4e487b71000000000000000000000000000000000000000000000000000000005f52602260045260245ffd5b5f60028204905060018216806112c057607f821691505b6020821081036112d3576112d261127c565b5b50919050565b5f819050815f5260205f209050919050565b5f6020601f8301049050919050565b5f82821b905092915050565b5f600883026113357fffffffffffffffffffffffffffffffffffffffffffffffffffffffffffffffff826112fa565b61133f86836112fa565b95508019841693508086168417925050509392505050565b5f819050919050565b5f61137a61137561137084610ccd565b611357565b610ccd565b9050919050565b5f819050919050565b61139383611360565b6113a761139f82611381565b848454611306565b825550505050565b5f90565b6113bb6113af565b6113c681848461138a565b505050565b5b818110156113e9576113de5f826113b3565b6001810190506113cc565b5050565b601f82111561142e576113ff816112d9565b611408846112eb565b81016020851015611417578190505b61142b611423856112eb565b8301826113cb565b50505b505050565b5f82821c905092915050565b5f61144e5f1984600802611433565b1980831691505092915050565b5f611466838361143f565b9150826002028217905092915050565b61147f82611272565b67ffffffffffffffff81111561149857611497610e64565b5b6114a282546112a9565b6114ad8282856113ed565b5f60209050601f8311600181146114de575f84156114cc578287015190505b6114d6858261145b565b86555061153d565b601f1984166114ec866112d9565b5f5b82811015611513578489015182556001820191506020850194506020810190506114ee565b86831015611530578489015161152c601f89168261143f565b8355505b6001600288020188555050505b505050505050565b7f4e487b71000000000000000000000000000000000000000000000000000000005f52601160045260245ffd5b5f61157c82610ccd565b915061158783610ccd565b925082820190508082111561159f5761159e611545565b5b92915050565b5f5b838110156115c25780820151818401526020810190506115a7565b5f8484015250505050565b5f6115d782611272565b6115e1818561109c565b93506115f18185602086016115a5565b6115fa81610e54565b840191505092915050565b5f6080820190506116185f830187610d6a565b6116256020830186610d5b565b6116326040830185610d6a565b818103606083015261164481846115cd565b905095945050505050565b7f4f6e6c792062757965722063616e20636f6d706c6574652074686520657363725f8201527f6f77000000000000000000000000000000000000000000000000000000000000602082015250565b5f6116a960228361109c565b91506116b48261164f565b604082019050919050565b5f6020820190508181035f8301526116d68161169d565b9050919050565b7f457363726f7720697320616c726561647920636f6d706c6574656400000000005f82015250565b5f611711601b8361109c565b915061171c826116dd565b602082019050919050565b5f6020820190508181035f83015261173e81611705565b9050919050565b7f457363726f7720616d6f756e74206d75737420626520677265617465722074685f8201527f616e207a65726f00000000000000000000000000000000000000000000000000602082015250565b5f61179f60278361109c565b91506117aa82611745565b604082019050919050565b5f6020820190508181035f8301526117cc81611793565b9050919050565b7f496e76616c69642073656c6c65722061646472657373000000000000000000005f82015250565b5f61180760168361109c565b9150611812826117d3565b602082019050919050565b5f6020820190508181035f830152611834816117fb565b9050919050565b5f61184582610ccd565b91507fffffffffffffffffffffffffffffffffffffffffffffffffffffffffffffffff820361187757611876611545565b5b600182019050919050565b5f60a0820190506118955f830188610d6a565b6118a26020830187610d6a565b6118af6040830186610d5b565b6118bc6060830185610d5b565b6118c96080830184610d6a565b9695505050505050565b7f457363726f7720697320696e20646973707574650000000000000000000000005f82015250565b5f61190760148361109c565b9150611912826118d3565b602082019050919050565b5f6020820190508181035f830152611934816118fb565b905091905056fea26469706673582212208d7129e855400c84433fe54ac531e1f7513350bf06e73d9cc71552c160c1c53564736f6c63430008160033",
			"opcodes": "PUSH1 0x80 PUSH1 0x40 MSTORE CALLVALUE DUP1 ISZERO PUSH2 0xF JUMPI PUSH0 DUP1 REVERT JUMPDEST POP PUSH2 0x1971 DUP1 PUSH2 0x1D PUSH0 CODECOPY PUSH0 RETURN INVALID PUSH1 0x80 PUSH1 0x40 MSTORE PUSH1 0x4 CALLDATASIZE LT PUSH2 0x7A JUMPI PUSH0 CALLDATALOAD PUSH1 0xE0 SHR DUP1 PUSH4 0xB563153C GT PUSH2 0x4D JUMPI DUP1 PUSH4 0xB563153C EQ PUSH2 0x138 JUMPI DUP1 PUSH4 0xBFB231D2 EQ PUSH2 0x160 JUMPI DUP1 PUSH4 0xDBCD72F0 EQ PUSH2 0x19D JUMPI DUP1 PUSH4 0xDF3E0A1D EQ PUSH2 0x1B9 JUMPI PUSH2 0x7A JUMP JUMPDEST DUP1 PUSH4 0x12F52EE EQ PUSH2 0x7E JUMPI DUP1 PUSH4 0x34B25EE2 EQ PUSH2 0xBE JUMPI DUP1 PUSH4 0x3E9E27AA EQ PUSH2 0xE6 JUMPI DUP1 PUSH4 0x675AC67A EQ PUSH2 0x10E JUMPI JUMPDEST PUSH0 DUP1 REVERT JUMPDEST CALLVALUE DUP1 ISZERO PUSH2 0x89 JUMPI PUSH0 DUP1 REVERT JUMPDEST POP PUSH2 0xA4 PUSH1 0x4 DUP1 CALLDATASIZE SUB DUP2 ADD SWAP1 PUSH2 0x9F SWAP2 SWAP1 PUSH2 0xD00 JUMP JUMPDEST PUSH2 0x1E1 JUMP JUMPDEST PUSH1 0x40 MLOAD PUSH2 0xB5 SWAP6 SWAP5 SWAP4 SWAP3 SWAP2 SWAP1 PUSH2 0xD93 JUMP JUMPDEST PUSH1 0x40 MLOAD DUP1 SWAP2 SUB SWAP1 RETURN JUMPDEST CALLVALUE DUP1 ISZERO PUSH2 0xC9 JUMPI PUSH0 DUP1 REVERT JUMPDEST POP PUSH2 0xE4 PUSH1 0x4 DUP1 CALLDATASIZE SUB DUP2 ADD SWAP1 PUSH2 0xDF SWAP2 SWAP1 PUSH2 0xE0E JUMP JUMPDEST PUSH2 0x26A JUMP JUMPDEST STOP JUMPDEST CALLVALUE DUP1 ISZERO PUSH2 0xF1 JUMPI PUSH0 DUP1 REVERT JUMPDEST POP PUSH2 0x10C PUSH1 0x4 DUP1 CALLDATASIZE SUB DUP2 ADD SWAP1 PUSH2 0x107 SWAP2 SWAP1 PUSH2 0xF88 JUMP JUMPDEST PUSH2 0x3ED JUMP JUMPDEST STOP JUMPDEST CALLVALUE DUP1 ISZERO PUSH2 0x119 JUMPI PUSH0 DUP1 REVERT JUMPDEST POP PUSH2 0x122 PUSH2 0x6BF JUMP JUMPDEST PUSH1 0x40 MLOAD PUSH2 0x12F SWAP2 SWAP1 PUSH2 0xFF4 JUMP JUMPDEST PUSH1 0x40 MLOAD DUP1 SWAP2 SUB SWAP1 RETURN JUMPDEST CALLVALUE DUP1 ISZERO PUSH2 0x143 JUMPI PUSH0 DUP1 REVERT JUMPDEST POP PUSH2 0x15E PUSH1 0x4 DUP1 CALLDATASIZE SUB DUP2 ADD SWAP1 PUSH2 0x159 SWAP2 SWAP1 PUSH2 0xD00 JUMP JUMPDEST PUSH2 0x6C5 JUMP JUMPDEST STOP JUMPDEST CALLVALUE DUP1 ISZERO PUSH2 0x16B JUMPI PUSH0 DUP1 REVERT JUMPDEST POP PUSH2 0x186 PUSH1 0x4 DUP1 CALLDATASIZE SUB DUP2 ADD SWAP1 PUSH2 0x181 SWAP2 SWAP1 PUSH2 0xD00 JUMP JUMPDEST PUSH2 0x824 JUMP JUMPDEST PUSH1 0x40 MLOAD PUSH2 0x194 SWAP3 SWAP2 SWAP1 PUSH2 0x100D JUMP JUMPDEST PUSH1 0x40 MLOAD DUP1 SWAP2 SUB SWAP1 RETURN JUMPDEST PUSH2 0x1B7 PUSH1 0x4 DUP1 CALLDATASIZE SUB DUP2 ADD SWAP1 PUSH2 0x1B2 SWAP2 SWAP1 PUSH2 0x105E JUMP JUMPDEST PUSH2 0x843 JUMP JUMPDEST STOP JUMPDEST CALLVALUE DUP1 ISZERO PUSH2 0x1C4 JUMPI PUSH0 DUP1 REVERT JUMPDEST POP PUSH2 0x1DF PUSH1 0x4 DUP1 CALLDATASIZE SUB DUP2 ADD SWAP1 PUSH2 0x1DA SWAP2 SWAP1 PUSH2 0xD00 JUMP JUMPDEST PUSH2 0xA8F JUMP JUMPDEST STOP JUMPDEST PUSH1 0x1 PUSH1 0x20 MSTORE DUP1 PUSH0 MSTORE PUSH1 0x40 PUSH0 KECCAK256 PUSH0 SWAP2 POP SWAP1 POP DUP1 PUSH0 ADD PUSH0 SWAP1 SLOAD SWAP1 PUSH2 0x100 EXP SWAP1 DIV PUSH20 0xFFFFFFFFFFFFFFFFFFFFFFFFFFFFFFFFFFFFFFFF AND SWAP1 DUP1 PUSH1 0x1 ADD PUSH0 SWAP1 SLOAD SWAP1 PUSH2 0x100 EXP SWAP1 DIV PUSH20 0xFFFFFFFFFFFFFFFFFFFFFFFFFFFFFFFFFFFFFFFF AND SWAP1 DUP1 PUSH1 0x2 ADD SLOAD SWAP1 DUP1 PUSH1 0x3 ADD PUSH0 SWAP1 SLOAD SWAP1 PUSH2 0x100 EXP SWAP1 DIV PUSH1 0xFF AND SWAP1 DUP1 PUSH1 0x3 ADD PUSH1 0x1 SWAP1 SLOAD SWAP1 PUSH2 0x100 EXP SWAP1 DIV PUSH1 0xFF AND SWAP1 POP DUP6 JUMP JUMPDEST PUSH0 PUSH1 0x1 PUSH0 DUP5 DUP2 MSTORE PUSH1 0x20 ADD SWAP1 DUP2 MSTORE PUSH1 0x20 ADD PUSH0 KECCAK256 SWAP1 POP DUP1 PUSH1 0x3 ADD PUSH1 0x1 SWAP1 SLOAD SWAP1 PUSH2 0x100 EXP SWAP1 DIV PUSH1 0xFF AND PUSH2 0x2CF JUMPI PUSH1 0x40 MLOAD PUSH32 0x8C379A000000000000000000000000000000000000000000000000000000000 DUP2 MSTORE PUSH1 0x4 ADD PUSH2 0x2C6 SWAP1 PUSH2 0x10F6 JUMP JUMPDEST PUSH1 0x40 MLOAD DUP1 SWAP2 SUB SWAP1 REVERT JUMPDEST DUP2 ISZERO PUSH2 0x345 JUMPI DUP1 PUSH1 0x1 ADD PUSH0 SWAP1 SLOAD SWAP1 PUSH2 0x100 EXP SWAP1 DIV PUSH20 0xFFFFFFFFFFFFFFFFFFFFFFFFFFFFFFFFFFFFFFFF AND PUSH20 0xFFFFFFFFFFFFFFFFFFFFFFFFFFFFFFFFFFFFFFFF AND PUSH2 0x8FC DUP3 PUSH1 0x2 ADD SLOAD SWAP1 DUP2 ISZERO MUL SWAP1 PUSH1 0x40 MLOAD PUSH0 PUSH1 0x40 MLOAD DUP1 DUP4 SUB DUP2 DUP6 DUP9 DUP9 CALL SWAP4 POP POP POP POP ISZERO DUP1 ISZERO PUSH2 0x33F JUMPI RETURNDATASIZE PUSH0 DUP1 RETURNDATACOPY RETURNDATASIZE PUSH0 REVERT JUMPDEST POP PUSH2 0x3B0 JUMP JUMPDEST DUP1 PUSH0 ADD PUSH0 SWAP1 SLOAD SWAP1 PUSH2 0x100 EXP SWAP1 DIV PUSH20 0xFFFFFFFFFFFFFFFFFFFFFFFFFFFFFFFFFFFFFFFF AND PUSH20 0xFFFFFFFFFFFFFFFFFFFFFFFFFFFFFFFFFFFFFFFF AND PUSH2 0x8FC DUP3 PUSH1 0x2 ADD SLOAD SWAP1 DUP2 ISZERO MUL SWAP1 PUSH1 0x40 MLOAD PUSH0 PUSH1 0x40 MLOAD DUP1 DUP4 SUB DUP2 DUP6 DUP9 DUP9 CALL SWAP4 POP POP POP POP ISZERO DUP1 ISZERO PUSH2 0x3AE JUMPI RETURNDATASIZE PUSH0 DUP1 RETURNDATACOPY RETURNDATASIZE PUSH0 REVERT JUMPDEST POP JUMPDEST PUSH1 0x1 DUP2 PUSH1 0x3 ADD PUSH0 PUSH2 0x100 EXP DUP2 SLOAD DUP2 PUSH1 0xFF MUL NOT AND SWAP1 DUP4 ISZERO ISZERO MUL OR SWAP1 SSTORE POP PUSH0 DUP2 PUSH1 0x3 ADD PUSH1 0x1 PUSH2 0x100 EXP DUP2 SLOAD DUP2 PUSH1 0xFF MUL NOT AND SWAP1 DUP4 ISZERO ISZERO MUL OR SWAP1 SSTORE POP POP POP POP JUMP JUMPDEST DUP2 PUSH0 DUP2 GT DUP1 ISZERO PUSH2 0x3FE JUMPI POP PUSH1 0x5 DUP2 GT ISZERO JUMPDEST PUSH2 0x43D JUMPI PUSH1 0x40 MLOAD PUSH32 0x8C379A000000000000000000000000000000000000000000000000000000000 DUP2 MSTORE PUSH1 0x4 ADD PUSH2 0x434 SWAP1 PUSH2 0x115E JUMP JUMPDEST PUSH1 0x40 MLOAD DUP1 SWAP2 SUB SWAP1 REVERT JUMPDEST DUP4 PUSH1 0x1 PUSH2 0x47F JUMPI PUSH1 0x40 MLOAD PUSH32 0x8C379A000000000000000000000000000000000000000000000000000000000 DUP2 MSTORE PUSH1 0x4 ADD PUSH2 0x476 SWAP1 PUSH2 0x11C6 JUMP JUMPDEST PUSH1 0x40 MLOAD DUP1 SWAP2 SUB SWAP1 REVERT JUMPDEST PUSH0 DUP1 PUSH0 DUP8 DUP2 MSTORE PUSH1 0x20 ADD SWAP1 DUP2 MSTORE PUSH1 0x20 ADD PUSH0 KECCAK256 SWAP1 POP DUP1 PUSH1 0x2 ADD PUSH0 CALLER PUSH20 0xFFFFFFFFFFFFFFFFFFFFFFFFFFFFFFFFFFFFFFFF AND PUSH20 0xFFFFFFFFFFFFFFFFFFFFFFFFFFFFFFFFFFFFFFFF AND DUP2 MSTORE PUSH1 0x20 ADD SWAP1 DUP2 MSTORE PUSH1 0x20 ADD PUSH0 KECCAK256 PUSH0 SWAP1 SLOAD SWAP1 PUSH2 0x100 EXP SWAP1 DIV PUSH1 0xFF AND ISZERO PUSH2 0x51E JUMPI PUSH1 0x40 MLOAD PUSH32 0x8C379A000000000000000000000000000000000000000000000000000000000 DUP2 MSTORE PUSH1 0x4 ADD PUSH2 0x515 SWAP1 PUSH2 0x1254 JUMP JUMPDEST PUSH1 0x40 MLOAD DUP1 SWAP2 SUB SWAP1 REVERT JUMPDEST DUP1 PUSH1 0x3 ADD PUSH1 0x40 MLOAD DUP1 PUSH1 0x80 ADD PUSH1 0x40 MSTORE DUP1 CALLER PUSH20 0xFFFFFFFFFFFFFFFFFFFFFFFFFFFFFFFFFFFFFFFF AND DUP2 MSTORE PUSH1 0x20 ADD DUP8 DUP2 MSTORE PUSH1 0x20 ADD DUP7 DUP2 MSTORE PUSH1 0x20 ADD TIMESTAMP DUP2 MSTORE POP SWAP1 DUP1 PUSH1 0x1 DUP2 SLOAD ADD DUP1 DUP3 SSTORE DUP1 SWAP2 POP POP PUSH1 0x1 SWAP1 SUB SWAP1 PUSH0 MSTORE PUSH1 0x20 PUSH0 KECCAK256 SWAP1 PUSH1 0x4 MUL ADD PUSH0 SWAP1 SWAP2 SWAP1 SWAP2 SWAP1 SWAP2 POP PUSH0 DUP3 ADD MLOAD DUP2 PUSH0 ADD PUSH0 PUSH2 0x100 EXP DUP2 SLOAD DUP2 PUSH20 0xFFFFFFFFFFFFFFFFFFFFFFFFFFFFFFFFFFFFFFFF MUL NOT AND SWAP1 DUP4 PUSH20 0xFFFFFFFFFFFFFFFFFFFFFFFFFFFFFFFFFFFFFFFF AND MUL OR SWAP1 SSTORE POP PUSH1 0x20 DUP3 ADD MLOAD DUP2 PUSH1 0x1 ADD SSTORE PUSH1 0x40 DUP3 ADD MLOAD DUP2 PUSH1 0x2 ADD SWAP1 DUP2 PUSH2 0x5E2 SWAP2 SWAP1 PUSH2 0x1476 JUMP JUMPDEST POP PUSH1 0x60 DUP3 ADD MLOAD DUP2 PUSH1 0x3 ADD SSTORE POP POP DUP5 DUP2 PUSH0 ADD PUSH0 DUP3 DUP3 SLOAD PUSH2 0x601 SWAP2 SWAP1 PUSH2 0x1572 JUMP JUMPDEST SWAP3 POP POP DUP2 SWAP1 SSTORE POP PUSH1 0x1 DUP2 PUSH1 0x1 ADD PUSH0 DUP3 DUP3 SLOAD PUSH2 0x61C SWAP2 SWAP1 PUSH2 0x1572 JUMP JUMPDEST SWAP3 POP POP DUP2 SWAP1 SSTORE POP PUSH1 0x1 DUP2 PUSH1 0x2 ADD PUSH0 CALLER PUSH20 0xFFFFFFFFFFFFFFFFFFFFFFFFFFFFFFFFFFFFFFFF AND PUSH20 0xFFFFFFFFFFFFFFFFFFFFFFFFFFFFFFFFFFFFFFFF AND DUP2 MSTORE PUSH1 0x20 ADD SWAP1 DUP2 MSTORE PUSH1 0x20 ADD PUSH0 KECCAK256 PUSH0 PUSH2 0x100 EXP DUP2 SLOAD DUP2 PUSH1 0xFF MUL NOT AND SWAP1 DUP4 ISZERO ISZERO MUL OR SWAP1 SSTORE POP PUSH32 0x4BEB3FAED0901F48C8EAA53DB80247F723DDEB08676B6BADB9EE2F191D1AC2DF DUP7 CALLER DUP8 DUP8 PUSH1 0x40 MLOAD PUSH2 0x6AF SWAP5 SWAP4 SWAP3 SWAP2 SWAP1 PUSH2 0x1605 JUMP JUMPDEST PUSH1 0x40 MLOAD DUP1 SWAP2 SUB SWAP1 LOG1 POP POP POP POP POP POP JUMP JUMPDEST PUSH1 0x2 SLOAD DUP2 JUMP JUMPDEST DUP1 CALLER PUSH20 0xFFFFFFFFFFFFFFFFFFFFFFFFFFFFFFFFFFFFFFFF AND PUSH1 0x1 PUSH0 DUP4 DUP2 MSTORE PUSH1 0x20 ADD SWAP1 DUP2 MSTORE PUSH1 0x20 ADD PUSH0 KECCAK256 PUSH0 ADD PUSH0 SWAP1 SLOAD SWAP1 PUSH2 0x100 EXP SWAP1 DIV PUSH20 0xFFFFFFFFFFFFFFFFFFFFFFFFFFFFFFFFFFFFFFFF AND PUSH20 0xFFFFFFFFFFFFFFFFFFFFFFFFFFFFFFFFFFFFFFFF AND EQ PUSH2 0x766 JUMPI PUSH1 0x40 MLOAD PUSH32 0x8C379A000000000000000000000000000000000000000000000000000000000 DUP2 MSTORE PUSH1 0x4 ADD PUSH2 0x75D SWAP1 PUSH2 0x16BF JUMP JUMPDEST PUSH1 0x40 MLOAD DUP1 SWAP2 SUB SWAP1 REVERT JUMPDEST PUSH0 PUSH1 0x1 PUSH0 DUP5 DUP2 MSTORE PUSH1 0x20 ADD SWAP1 DUP2 MSTORE PUSH1 0x20 ADD PUSH0 KECCAK256 SWAP1 POP DUP1 PUSH1 0x3 ADD PUSH0 SWAP1 SLOAD SWAP1 PUSH2 0x100 EXP SWAP1 DIV PUSH1 0xFF AND ISZERO PUSH2 0x7CB JUMPI PUSH1 0x40 MLOAD PUSH32 0x8C379A000000000000000000000000000000000000000000000000000000000 DUP2 MSTORE PUSH1 0x4 ADD PUSH2 0x7C2 SWAP1 PUSH2 0x1727 JUMP JUMPDEST PUSH1 0x40 MLOAD DUP1 SWAP2 SUB SWAP1 REVERT JUMPDEST PUSH1 0x1 DUP2 PUSH1 0x3 ADD PUSH1 0x1 PUSH2 0x100 EXP DUP2 SLOAD DUP2 PUSH1 0xFF MUL NOT AND SWAP1 DUP4 ISZERO ISZERO MUL OR SWAP1 SSTORE POP PUSH32 0x7CE7831FED9A800B1AA5E7CA21034BF7B95EFC31A196459012CF8B8EB42B7DAC DUP4 PUSH1 0x40 MLOAD PUSH2 0x817 SWAP2 SWAP1 PUSH2 0xFF4 JUMP JUMPDEST PUSH1 0x40 MLOAD DUP1 SWAP2 SUB SWAP1 LOG1 POP POP POP JUMP JUMPDEST PUSH0 PUSH1 0x20 MSTORE DUP1 PUSH0 MSTORE PUSH1 0x40 PUSH0 KECCAK256 PUSH0 SWAP2 POP SWAP1 POP DUP1 PUSH0 ADD SLOAD SWAP1 DUP1 PUSH1 0x1 ADD SLOAD SWAP1 POP DUP3 JUMP JUMPDEST PUSH0 CALLVALUE GT PUSH2 0x885 JUMPI PUSH1 0x40 MLOAD PUSH32 0x8C379A000000000000000000000000000000000000000000000000000000000 DUP2 MSTORE PUSH1 0x4 ADD PUSH2 0x87C SWAP1 PUSH2 0x17B5 JUMP JUMPDEST PUSH1 0x40 MLOAD DUP1 SWAP2 SUB SWAP1 REVERT JUMPDEST PUSH0 PUSH20 0xFFFFFFFFFFFFFFFFFFFFFFFFFFFFFFFFFFFFFFFF AND DUP2 PUSH20 0xFFFFFFFFFFFFFFFFFFFFFFFFFFFFFFFFFFFFFFFF AND SUB PUSH2 0x8F3 JUMPI PUSH1 0x40 MLOAD PUSH32 0x8C379A000000000000000000000000000000000000000000000000000000000 DUP2 MSTORE PUSH1 0x4 ADD PUSH2 0x8EA SWAP1 PUSH2 0x181D JUMP JUMPDEST PUSH1 0x40 MLOAD DUP1 SWAP2 SUB SWAP1 REVERT JUMPDEST PUSH1 0x2 PUSH0 DUP2 SLOAD DUP1 SWAP3 SWAP2 SWAP1 PUSH2 0x905 SWAP1 PUSH2 0x183B JUMP JUMPDEST SWAP2 SWAP1 POP SSTORE POP PUSH1 0x40 MLOAD DUP1 PUSH1 0xA0 ADD PUSH1 0x40 MSTORE DUP1 CALLER PUSH20 0xFFFFFFFFFFFFFFFFFFFFFFFFFFFFFFFFFFFFFFFF AND DUP2 MSTORE PUSH1 0x20 ADD DUP3 PUSH20 0xFFFFFFFFFFFFFFFFFFFFFFFFFFFFFFFFFFFFFFFF AND DUP2 MSTORE PUSH1 0x20 ADD CALLVALUE DUP2 MSTORE PUSH1 0x20 ADD PUSH0 ISZERO ISZERO DUP2 MSTORE PUSH1 0x20 ADD PUSH0 ISZERO ISZERO DUP2 MSTORE POP PUSH1 0x1 PUSH0 PUSH1 0x2 SLOAD DUP2 MSTORE PUSH1 0x20 ADD SWAP1 DUP2 MSTORE PUSH1 0x20 ADD PUSH0 KECCAK256 PUSH0 DUP3 ADD MLOAD DUP2 PUSH0 ADD PUSH0 PUSH2 0x100 EXP DUP2 SLOAD DUP2 PUSH20 0xFFFFFFFFFFFFFFFFFFFFFFFFFFFFFFFFFFFFFFFF MUL NOT AND SWAP1 DUP4 PUSH20 0xFFFFFFFFFFFFFFFFFFFFFFFFFFFFFFFFFFFFFFFF AND MUL OR SWAP1 SSTORE POP PUSH1 0x20 DUP3 ADD MLOAD DUP2 PUSH1 0x1 ADD PUSH0 PUSH2 0x100 EXP DUP2 SLOAD DUP2 PUSH20 0xFFFFFFFFFFFFFFFFFFFFFFFFFFFFFFFFFFFFFFFF MUL NOT AND SWAP1 DUP4 PUSH20 0xFFFFFFFFFFFFFFFFFFFFFFFFFFFFFFFFFFFFFFFF AND MUL OR SWAP1 SSTORE POP PUSH1 0x40 DUP3 ADD MLOAD DUP2 PUSH1 0x2 ADD SSTORE PUSH1 0x60 DUP3 ADD MLOAD DUP2 PUSH1 0x3 ADD PUSH0 PUSH2 0x100 EXP DUP2 SLOAD DUP2 PUSH1 0xFF MUL NOT AND SWAP1 DUP4 ISZERO ISZERO MUL OR SWAP1 SSTORE POP PUSH1 0x80 DUP3 ADD MLOAD DUP2 PUSH1 0x3 ADD PUSH1 0x1 PUSH2 0x100 EXP DUP2 SLOAD DUP2 PUSH1 0xFF MUL NOT AND SWAP1 DUP4 ISZERO ISZERO MUL OR SWAP1 SSTORE POP SWAP1 POP POP PUSH32 0xA96863DA5E2CB895C2D739EF4B0A2BF93464D7BB3A3BF098C0AF12C1B404C43A PUSH1 0x2 SLOAD DUP4 CALLER DUP5 CALLVALUE PUSH1 0x40 MLOAD PUSH2 0xA83 SWAP6 SWAP5 SWAP4 SWAP3 SWAP2 SWAP1 PUSH2 0x1882 JUMP JUMPDEST PUSH1 0x40 MLOAD DUP1 SWAP2 SUB SWAP1 LOG1 POP POP JUMP JUMPDEST DUP1 CALLER PUSH20 0xFFFFFFFFFFFFFFFFFFFFFFFFFFFFFFFFFFFFFFFF AND PUSH1 0x1 PUSH0 DUP4 DUP2 MSTORE PUSH1 0x20 ADD SWAP1 DUP2 MSTORE PUSH1 0x20 ADD PUSH0 KECCAK256 PUSH0 ADD PUSH0 SWAP1 SLOAD SWAP1 PUSH2 0x100 EXP SWAP1 DIV PUSH20 0xFFFFFFFFFFFFFFFFFFFFFFFFFFFFFFFFFFFFFFFF AND PUSH20 0xFFFFFFFFFFFFFFFFFFFFFFFFFFFFFFFFFFFFFFFF AND EQ PUSH2 0xB30 JUMPI PUSH1 0x40 MLOAD PUSH32 0x8C379A000000000000000000000000000000000000000000000000000000000 DUP2 MSTORE PUSH1 0x4 ADD PUSH2 0xB27 SWAP1 PUSH2 0x16BF JUMP JUMPDEST PUSH1 0x40 MLOAD DUP1 SWAP2 SUB SWAP1 REVERT JUMPDEST DUP2 PUSH1 0x1 PUSH0 DUP3 DUP2 MSTORE PUSH1 0x20 ADD SWAP1 DUP2 MSTORE PUSH1 0x20 ADD PUSH0 KECCAK256 PUSH1 0x3 ADD PUSH1 0x1 SWAP1 SLOAD SWAP1 PUSH2 0x100 EXP SWAP1 DIV PUSH1 0xFF AND ISZERO PUSH2 0xB93 JUMPI PUSH1 0x40 MLOAD PUSH32 0x8C379A000000000000000000000000000000000000000000000000000000000 DUP2 MSTORE PUSH1 0x4 ADD PUSH2 0xB8A SWAP1 PUSH2 0x191D JUMP JUMPDEST PUSH1 0x40 MLOAD DUP1 SWAP2 SUB SWAP1 REVERT JUMPDEST PUSH0 PUSH1 0x1 PUSH0 DUP6 DUP2 MSTORE PUSH1 0x20 ADD SWAP1 DUP2 MSTORE PUSH1 0x20 ADD PUSH0 KECCAK256 SWAP1 POP DUP1 PUSH1 0x3 ADD PUSH0 SWAP1 SLOAD SWAP1 PUSH2 0x100 EXP SWAP1 DIV PUSH1 0xFF AND ISZERO PUSH2 0xBF8 JUMPI PUSH1 0x40 MLOAD PUSH32 0x8C379A000000000000000000000000000000000000000000000000000000000 DUP2 MSTORE PUSH1 0x4 ADD PUSH2 0xBEF SWAP1 PUSH2 0x1727 JUMP JUMPDEST PUSH1 0x40 MLOAD DUP1 SWAP2 SUB SWAP1 REVERT JUMPDEST PUSH1 0x1 DUP2 PUSH1 0x3 ADD PUSH0 PUSH2 0x100 EXP DUP2 SLOAD DUP2 PUSH1 0xFF MUL NOT AND SWAP1 DUP4 ISZERO ISZERO MUL OR SWAP1 SSTORE POP DUP1 PUSH1 0x1 ADD PUSH0 SWAP1 SLOAD SWAP1 PUSH2 0x100 EXP SWAP1 DIV PUSH20 0xFFFFFFFFFFFFFFFFFFFFFFFFFFFFFFFFFFFFFFFF AND PUSH20 0xFFFFFFFFFFFFFFFFFFFFFFFFFFFFFFFFFFFFFFFF AND PUSH2 0x8FC DUP3 PUSH1 0x2 ADD SLOAD SWAP1 DUP2 ISZERO MUL SWAP1 PUSH1 0x40 MLOAD PUSH0 PUSH1 0x40 MLOAD DUP1 DUP4 SUB DUP2 DUP6 DUP9 DUP9 CALL SWAP4 POP POP POP POP ISZERO DUP1 ISZERO PUSH2 0xC7E JUMPI RETURNDATASIZE PUSH0 DUP1 RETURNDATACOPY RETURNDATASIZE PUSH0 REVERT JUMPDEST POP PUSH32 0x9285BD636DDA01BEF18996AA38303BB742F6C67A6941646DDDB17630CB492C2E DUP5 PUSH1 0x40 MLOAD PUSH2 0xCAE SWAP2 SWAP1 PUSH2 0xFF4 JUMP JUMPDEST PUSH1 0x40 MLOAD DUP1 SWAP2 SUB SWAP1 LOG1 POP POP POP POP JUMP JUMPDEST PUSH0 PUSH1 0x40 MLOAD SWAP1 POP SWAP1 JUMP JUMPDEST PUSH0 DUP1 REVERT JUMPDEST PUSH0 DUP1 REVERT JUMPDEST PUSH0 DUP2 SWAP1 POP SWAP2 SWAP1 POP JUMP JUMPDEST PUSH2 0xCDF DUP2 PUSH2 0xCCD JUMP JUMPDEST DUP2 EQ PUSH2 0xCE9 JUMPI PUSH0 DUP1 REVERT JUMPDEST POP JUMP JUMPDEST PUSH0 DUP2 CALLDATALOAD SWAP1 POP PUSH2 0xCFA DUP2 PUSH2 0xCD6 JUMP JUMPDEST SWAP3 SWAP2 POP POP JUMP JUMPDEST PUSH0 PUSH1 0x20 DUP3 DUP5 SUB SLT ISZERO PUSH2 0xD15 JUMPI PUSH2 0xD14 PUSH2 0xCC5 JUMP JUMPDEST JUMPDEST PUSH0 PUSH2 0xD22 DUP5 DUP3 DUP6 ADD PUSH2 0xCEC JUMP JUMPDEST SWAP2 POP POP SWAP3 SWAP2 POP POP JUMP JUMPDEST PUSH0 PUSH20 0xFFFFFFFFFFFFFFFFFFFFFFFFFFFFFFFFFFFFFFFF DUP3 AND SWAP1 POP SWAP2 SWAP1 POP JUMP JUMPDEST PUSH0 PUSH2 0xD54 DUP3 PUSH2 0xD2B JUMP JUMPDEST SWAP1 POP SWAP2 SWAP1 POP JUMP JUMPDEST PUSH2 0xD64 DUP2 PUSH2 0xD4A JUMP JUMPDEST DUP3 MSTORE POP POP JUMP JUMPDEST PUSH2 0xD73 DUP2 PUSH2 0xCCD JUMP JUMPDEST DUP3 MSTORE POP POP JUMP JUMPDEST PUSH0 DUP2 ISZERO ISZERO SWAP1 POP SWAP2 SWAP1 POP JUMP JUMPDEST PUSH2 0xD8D DUP2 PUSH2 0xD79 JUMP JUMPDEST DUP3 MSTORE POP POP JUMP JUMPDEST PUSH0 PUSH1 0xA0 DUP3 ADD SWAP1 POP PUSH2 0xDA6 PUSH0 DUP4 ADD DUP9 PUSH2 0xD5B JUMP JUMPDEST PUSH2 0xDB3 PUSH1 0x20 DUP4 ADD DUP8 PUSH2 0xD5B JUMP JUMPDEST PUSH2 0xDC0 PUSH1 0x40 DUP4 ADD DUP7 PUSH2 0xD6A JUMP JUMPDEST PUSH2 0xDCD PUSH1 0x60 DUP4 ADD DUP6 PUSH2 0xD84 JUMP JUMPDEST PUSH2 0xDDA PUSH1 0x80 DUP4 ADD DUP5 PUSH2 0xD84 JUMP JUMPDEST SWAP7 SWAP6 POP POP POP POP POP POP JUMP JUMPDEST PUSH2 0xDED DUP2 PUSH2 0xD79 JUMP JUMPDEST DUP2 EQ PUSH2 0xDF7 JUMPI PUSH0 DUP1 REVERT JUMPDEST POP JUMP JUMPDEST PUSH0 DUP2 CALLDATALOAD SWAP1 POP PUSH2 0xE08 DUP2 PUSH2 0xDE4 JUMP JUMPDEST SWAP3 SWAP2 POP POP JUMP JUMPDEST PUSH0 DUP1 PUSH1 0x40 DUP4 DUP6 SUB SLT ISZERO PUSH2 0xE24 JUMPI PUSH2 0xE23 PUSH2 0xCC5 JUMP JUMPDEST JUMPDEST PUSH0 PUSH2 0xE31 DUP6 DUP3 DUP7 ADD PUSH2 0xCEC JUMP JUMPDEST SWAP3 POP POP PUSH1 0x20 PUSH2 0xE42 DUP6 DUP3 DUP7 ADD PUSH2 0xDFA JUMP JUMPDEST SWAP2 POP POP SWAP3 POP SWAP3 SWAP1 POP JUMP JUMPDEST PUSH0 DUP1 REVERT JUMPDEST PUSH0 DUP1 REVERT JUMPDEST PUSH0 PUSH1 0x1F NOT PUSH1 0x1F DUP4 ADD AND SWAP1 POP SWAP2 SWAP1 POP JUMP JUMPDEST PUSH32 0x4E487B7100000000000000000000000000000000000000000000000000000000 PUSH0 MSTORE PUSH1 0x41 PUSH1 0x4 MSTORE PUSH1 0x24 PUSH0 REVERT JUMPDEST PUSH2 0xE9A DUP3 PUSH2 0xE54 JUMP JUMPDEST DUP2 ADD DUP2 DUP2 LT PUSH8 0xFFFFFFFFFFFFFFFF DUP3 GT OR ISZERO PUSH2 0xEB9 JUMPI PUSH2 0xEB8 PUSH2 0xE64 JUMP JUMPDEST JUMPDEST DUP1 PUSH1 0x40 MSTORE POP POP POP JUMP JUMPDEST PUSH0 PUSH2 0xECB PUSH2 0xCBC JUMP JUMPDEST SWAP1 POP PUSH2 0xED7 DUP3 DUP3 PUSH2 0xE91 JUMP JUMPDEST SWAP2 SWAP1 POP JUMP JUMPDEST PUSH0 PUSH8 0xFFFFFFFFFFFFFFFF DUP3 GT ISZERO PUSH2 0xEF6 JUMPI PUSH2 0xEF5 PUSH2 0xE64 JUMP JUMPDEST JUMPDEST PUSH2 0xEFF DUP3 PUSH2 0xE54 JUMP JUMPDEST SWAP1 POP PUSH1 0x20 DUP2 ADD SWAP1 POP SWAP2 SWAP1 POP JUMP JUMPDEST DUP3 DUP2 DUP4 CALLDATACOPY PUSH0 DUP4 DUP4 ADD MSTORE POP POP POP JUMP JUMPDEST PUSH0 PUSH2 0xF2C PUSH2 0xF27 DUP5 PUSH2 0xEDC JUMP JUMPDEST PUSH2 0xEC2 JUMP JUMPDEST SWAP1 POP DUP3 DUP2 MSTORE PUSH1 0x20 DUP2 ADD DUP5 DUP5 DUP5 ADD GT ISZERO PUSH2 0xF48 JUMPI PUSH2 0xF47 PUSH2 0xE50 JUMP JUMPDEST JUMPDEST PUSH2 0xF53 DUP5 DUP3 DUP6 PUSH2 0xF0C JUMP JUMPDEST POP SWAP4 SWAP3 POP POP POP JUMP JUMPDEST PUSH0 DUP3 PUSH1 0x1F DUP4 ADD SLT PUSH2 0xF6F JUMPI PUSH2 0xF6E PUSH2 0xE4C JUMP JUMPDEST JUMPDEST DUP2 CALLDATALOAD PUSH2 0xF7F DUP5 DUP3 PUSH1 0x20 DUP7 ADD PUSH2 0xF1A JUMP JUMPDEST SWAP2 POP POP SWAP3 SWAP2 POP POP JUMP JUMPDEST PUSH0 DUP1 PUSH0 PUSH1 0x60 DUP5 DUP7 SUB SLT ISZERO PUSH2 0xF9F JUMPI PUSH2 0xF9E PUSH2 0xCC5 JUMP JUMPDEST JUMPDEST PUSH0 PUSH2 0xFAC DUP7 DUP3 DUP8 ADD PUSH2 0xCEC JUMP JUMPDEST SWAP4 POP POP PUSH1 0x20 PUSH2 0xFBD DUP7 DUP3 DUP8 ADD PUSH2 0xCEC JUMP JUMPDEST SWAP3 POP POP PUSH1 0x40 DUP5 ADD CALLDATALOAD PUSH8 0xFFFFFFFFFFFFFFFF DUP2 GT ISZERO PUSH2 0xFDE JUMPI PUSH2 0xFDD PUSH2 0xCC9 JUMP JUMPDEST JUMPDEST PUSH2 0xFEA DUP7 DUP3 DUP8 ADD PUSH2 0xF5B JUMP JUMPDEST SWAP2 POP POP SWAP3 POP SWAP3 POP SWAP3 JUMP JUMPDEST PUSH0 PUSH1 0x20 DUP3 ADD SWAP1 POP PUSH2 0x1007 PUSH0 DUP4 ADD DUP5 PUSH2 0xD6A JUMP JUMPDEST SWAP3 SWAP2 POP POP JUMP JUMPDEST PUSH0 PUSH1 0x40 DUP3 ADD SWAP1 POP PUSH2 0x1020 PUSH0 DUP4 ADD DUP6 PUSH2 0xD6A JUMP JUMPDEST PUSH2 0x102D PUSH1 0x20 DUP4 ADD DUP5 PUSH2 0xD6A JUMP JUMPDEST SWAP4 SWAP3 POP POP POP JUMP JUMPDEST PUSH2 0x103D DUP2 PUSH2 0xD4A JUMP JUMPDEST DUP2 EQ PUSH2 0x1047 JUMPI PUSH0 DUP1 REVERT JUMPDEST POP JUMP JUMPDEST PUSH0 DUP2 CALLDATALOAD SWAP1 POP PUSH2 0x1058 DUP2 PUSH2 0x1034 JUMP JUMPDEST SWAP3 SWAP2 POP POP JUMP JUMPDEST PUSH0 DUP1 PUSH1 0x40 DUP4 DUP6 SUB SLT ISZERO PUSH2 0x1074 JUMPI PUSH2 0x1073 PUSH2 0xCC5 JUMP JUMPDEST JUMPDEST PUSH0 PUSH2 0x1081 DUP6 DUP3 DUP7 ADD PUSH2 0xCEC JUMP JUMPDEST SWAP3 POP POP PUSH1 0x20 PUSH2 0x1092 DUP6 DUP3 DUP7 ADD PUSH2 0x104A JUMP JUMPDEST SWAP2 POP POP SWAP3 POP SWAP3 SWAP1 POP JUMP JUMPDEST PUSH0 DUP3 DUP3 MSTORE PUSH1 0x20 DUP3 ADD SWAP1 POP SWAP3 SWAP2 POP POP JUMP JUMPDEST PUSH32 0x457363726F77206973206E6F7420696E20646973707574650000000000000000 PUSH0 DUP3 ADD MSTORE POP JUMP JUMPDEST PUSH0 PUSH2 0x10E0 PUSH1 0x18 DUP4 PUSH2 0x109C JUMP JUMPDEST SWAP2 POP PUSH2 0x10EB DUP3 PUSH2 0x10AC JUMP JUMPDEST PUSH1 0x20 DUP3 ADD SWAP1 POP SWAP2 SWAP1 POP JUMP JUMPDEST PUSH0 PUSH1 0x20 DUP3 ADD SWAP1 POP DUP2 DUP2 SUB PUSH0 DUP4 ADD MSTORE PUSH2 0x110D DUP2 PUSH2 0x10D4 JUMP JUMPDEST SWAP1 POP SWAP2 SWAP1 POP JUMP JUMPDEST PUSH32 0x526174696E67206D757374206265206265747765656E203120616E6420350000 PUSH0 DUP3 ADD MSTORE POP JUMP JUMPDEST PUSH0 PUSH2 0x1148 PUSH1 0x1E DUP4 PUSH2 0x109C JUMP JUMPDEST SWAP2 POP PUSH2 0x1153 DUP3 PUSH2 0x1114 JUMP JUMPDEST PUSH1 0x20 DUP3 ADD SWAP1 POP SWAP2 SWAP1 POP JUMP JUMPDEST PUSH0 PUSH1 0x20 DUP3 ADD SWAP1 POP DUP2 DUP2 SUB PUSH0 DUP4 ADD MSTORE PUSH2 0x1175 DUP2 PUSH2 0x113C JUMP JUMPDEST SWAP1 POP SWAP2 SWAP1 POP JUMP JUMPDEST PUSH32 0x5573657220686173206E6F74207075726368617365642074686973206974656D PUSH0 DUP3 ADD MSTORE POP JUMP JUMPDEST PUSH0 PUSH2 0x11B0 PUSH1 0x20 DUP4 PUSH2 0x109C JUMP JUMPDEST SWAP2 POP PUSH2 0x11BB DUP3 PUSH2 0x117C JUMP JUMPDEST PUSH1 0x20 DUP3 ADD SWAP1 POP SWAP2 SWAP1 POP JUMP JUMPDEST PUSH0 PUSH1 0x20 DUP3 ADD SWAP1 POP DUP2 DUP2 SUB PUSH0 DUP4 ADD MSTORE PUSH2 0x11DD DUP2 PUSH2 0x11A4 JUMP JUMPDEST SWAP1 POP SWAP2 SWAP1 POP JUMP JUMPDEST PUSH32 0x557365722068617320616C726561647920726576696577656420746869732069 PUSH0 DUP3 ADD MSTORE PUSH32 0x74656D0000000000000000000000000000000000000000000000000000000000 PUSH1 0x20 DUP3 ADD MSTORE POP JUMP JUMPDEST PUSH0 PUSH2 0x123E PUSH1 0x23 DUP4 PUSH2 0x109C JUMP JUMPDEST SWAP2 POP PUSH2 0x1249 DUP3 PUSH2 0x11E4 JUMP JUMPDEST PUSH1 0x40 DUP3 ADD SWAP1 POP SWAP2 SWAP1 POP JUMP JUMPDEST PUSH0 PUSH1 0x20 DUP3 ADD SWAP1 POP DUP2 DUP2 SUB PUSH0 DUP4 ADD MSTORE PUSH2 0x126B DUP2 PUSH2 0x1232 JUMP JUMPDEST SWAP1 POP SWAP2 SWAP1 POP JUMP JUMPDEST PUSH0 DUP2 MLOAD SWAP1 POP SWAP2 SWAP1 POP JUMP JUMPDEST PUSH32 0x4E487B7100000000000000000000000000000000000000000000000000000000 PUSH0 MSTORE PUSH1 0x22 PUSH1 0x4 MSTORE PUSH1 0x24 PUSH0 REVERT JUMPDEST PUSH0 PUSH1 0x2 DUP3 DIV SWAP1 POP PUSH1 0x1 DUP3 AND DUP1 PUSH2 0x12C0 JUMPI PUSH1 0x7F DUP3 AND SWAP2 POP JUMPDEST PUSH1 0x20 DUP3 LT DUP2 SUB PUSH2 0x12D3 JUMPI PUSH2 0x12D2 PUSH2 0x127C JUMP JUMPDEST JUMPDEST POP SWAP2 SWAP1 POP JUMP JUMPDEST PUSH0 DUP2 SWAP1 POP DUP2 PUSH0 MSTORE PUSH1 0x20 PUSH0 KECCAK256 SWAP1 POP SWAP2 SWAP1 POP JUMP JUMPDEST PUSH0 PUSH1 0x20 PUSH1 0x1F DUP4 ADD DIV SWAP1 POP SWAP2 SWAP1 POP JUMP JUMPDEST PUSH0 DUP3 DUP3 SHL SWAP1 POP SWAP3 SWAP2 POP POP JUMP JUMPDEST PUSH0 PUSH1 0x8 DUP4 MUL PUSH2 0x1335 PUSH32 0xFFFFFFFFFFFFFFFFFFFFFFFFFFFFFFFFFFFFFFFFFFFFFFFFFFFFFFFFFFFFFFFF DUP3 PUSH2 0x12FA JUMP JUMPDEST PUSH2 0x133F DUP7 DUP4 PUSH2 0x12FA JUMP JUMPDEST SWAP6 POP DUP1 NOT DUP5 AND SWAP4 POP DUP1 DUP7 AND DUP5 OR SWAP3 POP POP POP SWAP4 SWAP3 POP POP POP JUMP JUMPDEST PUSH0 DUP2 SWAP1 POP SWAP2 SWAP1 POP JUMP JUMPDEST PUSH0 PUSH2 0x137A PUSH2 0x1375 PUSH2 0x1370 DUP5 PUSH2 0xCCD JUMP JUMPDEST PUSH2 0x1357 JUMP JUMPDEST PUSH2 0xCCD JUMP JUMPDEST SWAP1 POP SWAP2 SWAP1 POP JUMP JUMPDEST PUSH0 DUP2 SWAP1 POP SWAP2 SWAP1 POP JUMP JUMPDEST PUSH2 0x1393 DUP4 PUSH2 0x1360 JUMP JUMPDEST PUSH2 0x13A7 PUSH2 0x139F DUP3 PUSH2 0x1381 JUMP JUMPDEST DUP5 DUP5 SLOAD PUSH2 0x1306 JUMP JUMPDEST DUP3 SSTORE POP POP POP POP JUMP JUMPDEST PUSH0 SWAP1 JUMP JUMPDEST PUSH2 0x13BB PUSH2 0x13AF JUMP JUMPDEST PUSH2 0x13C6 DUP2 DUP5 DUP5 PUSH2 0x138A JUMP JUMPDEST POP POP POP JUMP JUMPDEST JUMPDEST DUP2 DUP2 LT ISZERO PUSH2 0x13E9 JUMPI PUSH2 0x13DE PUSH0 DUP3 PUSH2 0x13B3 JUMP JUMPDEST PUSH1 0x1 DUP2 ADD SWAP1 POP PUSH2 0x13CC JUMP JUMPDEST POP POP JUMP JUMPDEST PUSH1 0x1F DUP3 GT ISZERO PUSH2 0x142E JUMPI PUSH2 0x13FF DUP2 PUSH2 0x12D9 JUMP JUMPDEST PUSH2 0x1408 DUP5 PUSH2 0x12EB JUMP JUMPDEST DUP2 ADD PUSH1 0x20 DUP6 LT ISZERO PUSH2 0x1417 JUMPI DUP2 SWAP1 POP JUMPDEST PUSH2 0x142B PUSH2 0x1423 DUP6 PUSH2 0x12EB JUMP JUMPDEST DUP4 ADD DUP3 PUSH2 0x13CB JUMP JUMPDEST POP POP JUMPDEST POP POP POP JUMP JUMPDEST PUSH0 DUP3 DUP3 SHR SWAP1 POP SWAP3 SWAP2 POP POP JUMP JUMPDEST PUSH0 PUSH2 0x144E PUSH0 NOT DUP5 PUSH1 0x8 MUL PUSH2 0x1433 JUMP JUMPDEST NOT DUP1 DUP4 AND SWAP2 POP POP SWAP3 SWAP2 POP POP JUMP JUMPDEST PUSH0 PUSH2 0x1466 DUP4 DUP4 PUSH2 0x143F JUMP JUMPDEST SWAP2 POP DUP3 PUSH1 0x2 MUL DUP3 OR SWAP1 POP SWAP3 SWAP2 POP POP JUMP JUMPDEST PUSH2 0x147F DUP3 PUSH2 0x1272 JUMP JUMPDEST PUSH8 0xFFFFFFFFFFFFFFFF DUP2 GT ISZERO PUSH2 0x1498 JUMPI PUSH2 0x1497 PUSH2 0xE64 JUMP JUMPDEST JUMPDEST PUSH2 0x14A2 DUP3 SLOAD PUSH2 0x12A9 JUMP JUMPDEST PUSH2 0x14AD DUP3 DUP3 DUP6 PUSH2 0x13ED JUMP JUMPDEST PUSH0 PUSH1 0x20 SWAP1 POP PUSH1 0x1F DUP4 GT PUSH1 0x1 DUP2 EQ PUSH2 0x14DE JUMPI PUSH0 DUP5 ISZERO PUSH2 0x14CC JUMPI DUP3 DUP8 ADD MLOAD SWAP1 POP JUMPDEST PUSH2 0x14D6 DUP6 DUP3 PUSH2 0x145B JUMP JUMPDEST DUP7 SSTORE POP PUSH2 0x153D JUMP JUMPDEST PUSH1 0x1F NOT DUP5 AND PUSH2 0x14EC DUP7 PUSH2 0x12D9 JUMP JUMPDEST PUSH0 JUMPDEST DUP3 DUP2 LT ISZERO PUSH2 0x1513 JUMPI DUP5 DUP10 ADD MLOAD DUP3 SSTORE PUSH1 0x1 DUP3 ADD SWAP2 POP PUSH1 0x20 DUP6 ADD SWAP5 POP PUSH1 0x20 DUP2 ADD SWAP1 POP PUSH2 0x14EE JUMP JUMPDEST DUP7 DUP4 LT ISZERO PUSH2 0x1530 JUMPI DUP5 DUP10 ADD MLOAD PUSH2 0x152C PUSH1 0x1F DUP10 AND DUP3 PUSH2 0x143F JUMP JUMPDEST DUP4 SSTORE POP JUMPDEST PUSH1 0x1 PUSH1 0x2 DUP9 MUL ADD DUP9 SSTORE POP POP POP JUMPDEST POP POP POP POP POP POP JUMP JUMPDEST PUSH32 0x4E487B7100000000000000000000000000000000000000000000000000000000 PUSH0 MSTORE PUSH1 0x11 PUSH1 0x4 MSTORE PUSH1 0x24 PUSH0 REVERT JUMPDEST PUSH0 PUSH2 0x157C DUP3 PUSH2 0xCCD JUMP JUMPDEST SWAP2 POP PUSH2 0x1587 DUP4 PUSH2 0xCCD JUMP JUMPDEST SWAP3 POP DUP3 DUP3 ADD SWAP1 POP DUP1 DUP3 GT ISZERO PUSH2 0x159F JUMPI PUSH2 0x159E PUSH2 0x1545 JUMP JUMPDEST JUMPDEST SWAP3 SWAP2 POP POP JUMP JUMPDEST PUSH0 JUMPDEST DUP4 DUP2 LT ISZERO PUSH2 0x15C2 JUMPI DUP1 DUP3 ADD MLOAD DUP2 DUP5 ADD MSTORE PUSH1 0x20 DUP2 ADD SWAP1 POP PUSH2 0x15A7 JUMP JUMPDEST PUSH0 DUP5 DUP5 ADD MSTORE POP POP POP POP JUMP JUMPDEST PUSH0 PUSH2 0x15D7 DUP3 PUSH2 0x1272 JUMP JUMPDEST PUSH2 0x15E1 DUP2 DUP6 PUSH2 0x109C JUMP JUMPDEST SWAP4 POP PUSH2 0x15F1 DUP2 DUP6 PUSH1 0x20 DUP7 ADD PUSH2 0x15A5 JUMP JUMPDEST PUSH2 0x15FA DUP2 PUSH2 0xE54 JUMP JUMPDEST DUP5 ADD SWAP2 POP POP SWAP3 SWAP2 POP POP JUMP JUMPDEST PUSH0 PUSH1 0x80 DUP3 ADD SWAP1 POP PUSH2 0x1618 PUSH0 DUP4 ADD DUP8 PUSH2 0xD6A JUMP JUMPDEST PUSH2 0x1625 PUSH1 0x20 DUP4 ADD DUP7 PUSH2 0xD5B JUMP JUMPDEST PUSH2 0x1632 PUSH1 0x40 DUP4 ADD DUP6 PUSH2 0xD6A JUMP JUMPDEST DUP2 DUP2 SUB PUSH1 0x60 DUP4 ADD MSTORE PUSH2 0x1644 DUP2 DUP5 PUSH2 0x15CD JUMP JUMPDEST SWAP1 POP SWAP6 SWAP5 POP POP POP POP POP JUMP JUMPDEST PUSH32 0x4F6E6C792062757965722063616E20636F6D706C657465207468652065736372 PUSH0 DUP3 ADD MSTORE PUSH32 0x6F77000000000000000000000000000000000000000000000000000000000000 PUSH1 0x20 DUP3 ADD MSTORE POP JUMP JUMPDEST PUSH0 PUSH2 0x16A9 PUSH1 0x22 DUP4 PUSH2 0x109C JUMP JUMPDEST SWAP2 POP PUSH2 0x16B4 DUP3 PUSH2 0x164F JUMP JUMPDEST PUSH1 0x40 DUP3 ADD SWAP1 POP SWAP2 SWAP1 POP JUMP JUMPDEST PUSH0 PUSH1 0x20 DUP3 ADD SWAP1 POP DUP2 DUP2 SUB PUSH0 DUP4 ADD MSTORE PUSH2 0x16D6 DUP2 PUSH2 0x169D JUMP JUMPDEST SWAP1 POP SWAP2 SWAP1 POP JUMP JUMPDEST PUSH32 0x457363726F7720697320616C726561647920636F6D706C657465640000000000 PUSH0 DUP3 ADD MSTORE POP JUMP JUMPDEST PUSH0 PUSH2 0x1711 PUSH1 0x1B DUP4 PUSH2 0x109C JUMP JUMPDEST SWAP2 POP PUSH2 0x171C DUP3 PUSH2 0x16DD JUMP JUMPDEST PUSH1 0x20 DUP3 ADD SWAP1 POP SWAP2 SWAP1 POP JUMP JUMPDEST PUSH0 PUSH1 0x20 DUP3 ADD SWAP1 POP DUP2 DUP2 SUB PUSH0 DUP4 ADD MSTORE PUSH2 0x173E DUP2 PUSH2 0x1705 JUMP JUMPDEST SWAP1 POP SWAP2 SWAP1 POP JUMP JUMPDEST PUSH32 0x457363726F7720616D6F756E74206D7573742062652067726561746572207468 PUSH0 DUP3 ADD MSTORE PUSH32 0x616E207A65726F00000000000000000000000000000000000000000000000000 PUSH1 0x20 DUP3 ADD MSTORE POP JUMP JUMPDEST PUSH0 PUSH2 0x179F PUSH1 0x27 DUP4 PUSH2 0x109C JUMP JUMPDEST SWAP2 POP PUSH2 0x17AA DUP3 PUSH2 0x1745 JUMP JUMPDEST PUSH1 0x40 DUP3 ADD SWAP1 POP SWAP2 SWAP1 POP JUMP JUMPDEST PUSH0 PUSH1 0x20 DUP3 ADD SWAP1 POP DUP2 DUP2 SUB PUSH0 DUP4 ADD MSTORE PUSH2 0x17CC DUP2 PUSH2 0x1793 JUMP JUMPDEST SWAP1 POP SWAP2 SWAP1 POP JUMP JUMPDEST PUSH32 0x496E76616C69642073656C6C6572206164647265737300000000000000000000 PUSH0 DUP3 ADD MSTORE POP JUMP JUMPDEST PUSH0 PUSH2 0x1807 PUSH1 0x16 DUP4 PUSH2 0x109C JUMP JUMPDEST SWAP2 POP PUSH2 0x1812 DUP3 PUSH2 0x17D3 JUMP JUMPDEST PUSH1 0x20 DUP3 ADD SWAP1 POP SWAP2 SWAP1 POP JUMP JUMPDEST PUSH0 PUSH1 0x20 DUP3 ADD SWAP1 POP DUP2 DUP2 SUB PUSH0 DUP4 ADD MSTORE PUSH2 0x1834 DUP2 PUSH2 0x17FB JUMP JUMPDEST SWAP1 POP SWAP2 SWAP1 POP JUMP JUMPDEST PUSH0 PUSH2 0x1845 DUP3 PUSH2 0xCCD JUMP JUMPDEST SWAP2 POP PUSH32 0xFFFFFFFFFFFFFFFFFFFFFFFFFFFFFFFFFFFFFFFFFFFFFFFFFFFFFFFFFFFFFFFF DUP3 SUB PUSH2 0x1877 JUMPI PUSH2 0x1876 PUSH2 0x1545 JUMP JUMPDEST JUMPDEST PUSH1 0x1 DUP3 ADD SWAP1 POP SWAP2 SWAP1 POP JUMP JUMPDEST PUSH0 PUSH1 0xA0 DUP3 ADD SWAP1 POP PUSH2 0x1895 PUSH0 DUP4 ADD DUP9 PUSH2 0xD6A JUMP JUMPDEST PUSH2 0x18A2 PUSH1 0x20 DUP4 ADD DUP8 PUSH2 0xD6A JUMP JUMPDEST PUSH2 0x18AF PUSH1 0x40 DUP4 ADD DUP7 PUSH2 0xD5B JUMP JUMPDEST PUSH2 0x18BC PUSH1 0x60 DUP4 ADD DUP6 PUSH2 0xD5B JUMP JUMPDEST PUSH2 0x18C9 PUSH1 0x80 DUP4 ADD DUP5 PUSH2 0xD6A JUMP JUMPDEST SWAP7 SWAP6 POP POP POP POP POP POP JUMP JUMPDEST PUSH32 0x457363726F7720697320696E2064697370757465000000000000000000000000 PUSH0 DUP3 ADD MSTORE POP JUMP JUMPDEST PUSH0 PUSH2 0x1907 PUSH1 0x14 DUP4 PUSH2 0x109C JUMP JUMPDEST SWAP2 POP PUSH2 0x1912 DUP3 PUSH2 0x18D3 JUMP JUMPDEST PUSH1 0x20 DUP3 ADD SWAP1 POP SWAP2 SWAP1 POP JUMP JUMPDEST PUSH0 PUSH1 0x20 DUP3 ADD SWAP1 POP DUP2 DUP2 SUB PUSH0 DUP4 ADD MSTORE PUSH2 0x1934 DUP2 PUSH2 0x18FB JUMP JUMPDEST SWAP1 POP SWAP2 SWAP1 POP JUMP INVALID LOG2 PUSH5 0x6970667358 0x22 SLT KECCAK256 DUP14 PUSH18 0x29E855400C84433FE54AC531E1F7513350BF MOD 0xE7 RETURNDATASIZE SWAP13 0xC7 ISZERO MSTORE 0xC1 PUSH1 0xC1 0xC5 CALLDATALOAD PUSH5 0x736F6C6343 STOP ADDMOD AND STOP CALLER "
		},
		"gasEstimates": {
			"creation": {
				"codeDepositCost": "1302600",
				"executionCost": "1354",
				"totalCost": "1303954"
			},
			"external": {
				"addReview(uint256,uint256,string)": "infinite",
				"completeEscrow(uint256)": "infinite",
				"createEscrow(uint256,address)": "infinite",
				"disputeEscrow(uint256)": "infinite",
				"escrowCount()": "2492",
				"escrows(uint256)": "infinite",
				"items(uint256)": "infinite",
				"resolveDispute(uint256,bool)": "infinite"
			}
		},
		"methodIdentifiers": {
			"addReview(uint256,uint256,string)": "3e9e27aa",
			"completeEscrow(uint256)": "df3e0a1d",
			"createEscrow(uint256,address)": "dbcd72f0",
			"disputeEscrow(uint256)": "b563153c",
			"escrowCount()": "675ac67a",
			"escrows(uint256)": "012f52ee",
			"items(uint256)": "bfb231d2",
			"resolveDispute(uint256,bool)": "34b25ee2"
		}
	},
	"abi": [
		{
			"anonymous": false,
			"inputs": [
				{
					"indexed": false,
					"internalType": "uint256",
					"name": "escrowId",
					"type": "uint256"
				}
			],
			"name": "EscrowCompleted",
			"type": "event"
		},
		{
			"anonymous": false,
			"inputs": [
				{
					"indexed": false,
					"internalType": "uint256",
					"name": "escrowId",
					"type": "uint256"
				},
				{
					"indexed": false,
					"internalType": "uint256",
					"name": "itemId",
					"type": "uint256"
				},
				{
					"indexed": false,
					"internalType": "address",
					"name": "buyer",
					"type": "address"
				},
				{
					"indexed": false,
					"internalType": "address",
					"name": "seller",
					"type": "address"
				},
				{
					"indexed": false,
					"internalType": "uint256",
					"name": "amount",
					"type": "uint256"
				}
			],
			"name": "EscrowCreated",
			"type": "event"
		},
		{
			"anonymous": false,
			"inputs": [
				{
					"indexed": false,
					"internalType": "uint256",
					"name": "escrowId",
					"type": "uint256"
				}
			],
			"name": "EscrowDisputed",
			"type": "event"
		},
		{
			"anonymous": false,
			"inputs": [
				{
					"indexed": false,
					"internalType": "uint256",
					"name": "itemId",
					"type": "uint256"
				},
				{
					"indexed": false,
					"internalType": "address",
					"name": "reviewer",
					"type": "address"
				},
				{
					"indexed": false,
					"internalType": "uint256",
					"name": "rating",
					"type": "uint256"
				},
				{
					"indexed": false,
					"internalType": "string",
					"name": "comment",
					"type": "string"
				}
			],
			"name": "ReviewAdded",
			"type": "event"
		},
		{
			"inputs": [
				{
					"internalType": "uint256",
					"name": "itemId",
					"type": "uint256"
				},
				{
					"internalType": "uint256",
					"name": "rating",
					"type": "uint256"
				},
				{
					"internalType": "string",
					"name": "comment",
					"type": "string"
				}
			],
			"name": "addReview",
			"outputs": [],
			"stateMutability": "nonpayable",
			"type": "function"
		},
		{
			"inputs": [
				{
					"internalType": "uint256",
					"name": "escrowId",
					"type": "uint256"
				}
			],
			"name": "completeEscrow",
			"outputs": [],
			"stateMutability": "nonpayable",
			"type": "function"
		},
		{
			"inputs": [
				{
					"internalType": "uint256",
					"name": "itemId",
					"type": "uint256"
				},
				{
					"internalType": "address",
					"name": "seller",
					"type": "address"
				}
			],
			"name": "createEscrow",
			"outputs": [],
			"stateMutability": "payable",
			"type": "function"
		},
		{
			"inputs": [
				{
					"internalType": "uint256",
					"name": "escrowId",
					"type": "uint256"
				}
			],
			"name": "disputeEscrow",
			"outputs": [],
			"stateMutability": "nonpayable",
			"type": "function"
		},
		{
			"inputs": [],
			"name": "escrowCount",
			"outputs": [
				{
					"internalType": "uint256",
					"name": "",
					"type": "uint256"
				}
			],
			"stateMutability": "view",
			"type": "function"
		},
		{
			"inputs": [
				{
					"internalType": "uint256",
					"name": "",
					"type": "uint256"
				}
			],
			"name": "escrows",
			"outputs": [
				{
					"internalType": "address",
					"name": "buyer",
					"type": "address"
				},
				{
					"internalType": "address",
					"name": "seller",
					"type": "address"
				},
				{
					"internalType": "uint256",
					"name": "amount",
					"type": "uint256"
				},
				{
					"internalType": "bool",
					"name": "isCompleted",
					"type": "bool"
				},
				{
					"internalType": "bool",
					"name": "isDisputed",
					"type": "bool"
				}
			],
			"stateMutability": "view",
			"type": "function"
		},
		{
			"inputs": [
				{
					"internalType": "uint256",
					"name": "",
					"type": "uint256"
				}
			],
			"name": "items",
			"outputs": [
				{
					"internalType": "uint256",
					"name": "totalRating",
					"type": "uint256"
				},
				{
					"internalType": "uint256",
					"name": "reviewCount",
					"type": "uint256"
				}
			],
			"stateMutability": "view",
			"type": "function"
		},
		{
			"inputs": [
				{
					"internalType": "uint256",
					"name": "escrowId",
					"type": "uint256"
				},
				{
					"internalType": "bool",
					"name": "releaseToSeller",
					"type": "bool"
				}
			],
			"name": "resolveDispute",
			"outputs": [],
			"stateMutability": "nonpayable",
			"type": "function"
		}
	]
}